:020000040000FA
:030000000200E318
:03002B00020CC004
:03003300020C6953
:03006B00020BA3E2
:03007B00020BFC79
:10008300020B6B00000080FB120113B90003020096
:10009300CDE490020078BC79018002F0A3D8FCD9AA
:1000A300FA9002BBAA82AB8390011678347901805F
:1000B30015E493A3AC82AD838A828B83F0A3AA82D7
:1000C300AB838C828D83D8E9D9E77582CA75830F98
:1000D30074001200F575828675830074001200F5B2
:1000E30075D0007581BF751000751102759F0002F0
:1000F300008BC09FF59FE473D09F22D083D082C032
:100103009FE493C0E0740193C0E0740293F59F22CF
:100113007901226572726F723A005253543A005455
:100123003A00FF0000000000000000000000000093
:1001330000000AD7233C0000C8420000204152B807
:100143002F3B66663BC21200FED10C001200FEBAC2
:100153000D001200FE4F0E001200FE830E0012006F
:10016300FEAC0E001200FED90E001200FE000F00BE
:100173001200FE230F001200FE3B0F001200FE4B85
:100183000F001200FE600F001200FE770F00120036
:10019300FE8B0F001200FEBF0F001200FEB512000F
:1001A3001200FEC612001200FED712001200FEF764
:1001B30012001200FE1313001200FE471300120078
:1001C300FE6D13001200FEC613001200FE0F140092
:1001D3001200FEDC14001200FE3D15001200FECCDE
:1001E3001500080808E630E7111208CF1201FD08D0
:1001F3000808C64480C618181822181818E9799EEA
:10020300C608CAC608CBC608CCC6C370207996CA2E
:10021300CBCC7019798ECBCC70137986CC700EF958
:10022300802ACA33CACB33CBCC33CC331930E7F271
:10023300CCCBCA3350147004EA30E00DE4CA3ACA96
:10024300CB3BCBCC3CCC500209C3E913C6CC18231F
:1002530013C6CB18C6CA18C6F9228A088B098C0A9A
:100263008D0B78081202A720F01430E72B74FFFCE3
:10027300FBFA747F8022E4FCFBFA7480801AB4805A
:1002830008BC00F2BB00EF800F50EBF9E4C39AFA0D
:10029300E49BFBE49CFCE499C6CC18C6CB18C6CA05
:1002A30018C6F922E4C9C608CAC608CBC6D33303A5
:1002B30008CCC63392F0C3947F402E94184019C9DA
:1002C300B90704CACBCC225025C309CA33CACB33DE
:1002D300CBCC33CC33D9F422F4600DC9CCC313CBCC
:1002E30013CBCA13CAD9F6CC22E4FCFBFA2214FCC2
:1002F300FBFA22E6C33318461846184622E7C333EF
:1003030019471947194722181818E6084608700AAA
:10031300E608C3337005E633F4220822191919E7F6
:10032300094709700AE709C3337005E733F4220963
:1003330022E6084608C3134608336002E633F42274
:10034300E7094709C3134709336002E733F422007F
:10035300120334604F1203436012E7548066F612AF
:10036300030A7011120300703B090909F4F618F629
:1003730018F618F62212031F70151202F608080861
:1003830060EAE6447FF618768018E4F618F622123F
:1003930002F660161203007012E4F608F608F60877
:1003A300E65480F609090918181822EAC0E0EBC0E0
:1003B300E0ECC0E0EDC0E0E687F0A4FBACF008E6BB
:1003C30087F0A42CFCE435F0FA1809E687F0A42C96
:1003D3004B60027401CA35F0FCE433FB09E687F095
:1003E300D2F7A42CCB35F0FC1908E687F0A42BCC6C
:1003F30035F0FBE433FD0819E687F0D2E7A42C4A75
:10040300CB35F0CD3400FC09E687F0D2E7A42DCC40
:1004130035F0FDE433FA0918E687F0D2F7A42CCDC2
:1004230035F0CA3400FC08E687F0D2E7D2F7A42AF5
:10043300CC35F07A7E20E70B0ACB33CBCD33CDCC52
:1004430033CC33CB3350147004ED30E00ED2F1E4EF
:10045300CD3DCDCC3CCC3B5005DA05C2F1EB547F0E
:10046300C63308E63392F0FBE73309E733C39A5008
:100473002D2B70190C0D4C4D70151806E608C3335F
:10048300700D20F10AA2F013F6E418800B4024E467
:10049300F630F002768018F618F618F68024D33B6F
:1004A30014501074FFA2F013F6187680E418F618AF
:1004B300F6800FA2F013F618E63303F618ECF618DD
:1004C300EDF6D0E0FDD0E0FCD0E0FBD0E0FA221264
:1004D3000334601D1203437005191919801A12039E
:1004E3000A701F12031FC37003E6673319191940FB
:1004F300071818182208080874FFF618F618F618D3
:10050300F62212031F6017120300702192F01202E9
:10051300F67019501720F014080808090909E7F6BE
:100523001819E7F61819E7F61819E7F6221202F672
:1005330060E6E869701F0808E62480F608E436F6EA
:1005430018547FB47F0CE654806007F6E418F6185D
:10055300F622181822E9C6CC08C6CD08C6CE08C6AE
:10056300CFC0E0E8C0E0EAC0E0EBC0E009E9F80989
:10057300E7FA09E7FBE6F918E6F8C3EC98ED99EE1C
:100583009AEBC2E7F5F0EFC2E795F0500E600CEB83
:10059300CFFBEACEFAE9CDF9E8CCF8EAA2E7D2E755
:1005A300FAEB33FB13F5F0EEA2E7D2E7FEEF33FFEE
:1005B300C5F013A2E730E601B313C5F0C3C0E0C032
:1005C300F07F00C39BFB605B9418600C401AD0E083
:1005D30023F9D0E0F80206B08AF0E9486003D2F0CC
:1005E300E4AFF0FAF9F8803BEB30E40D89F0EA6010
:1005F30003D2F0E4AFF0F9CAF8EB30E30D88F0EF83
:100603006002D2F0AFF0E4CAC9F8EB54076014FB00
:10061300C3EA13FAE913F9E813F8EF135002D2E02F
:10062300FFDBEDD0E0C0E030E739C3E49FFFF5F036
:10063300EC98FC42F0ED99FD42F0EE9AFE42F0D0C8
:10064300E0F9D0E0F8E5F0607AE923F9EE20E7423B
:10065300D8028067C3EF33FFEC33FCED33FDEE3399
:10066300FE80EAEC28FCED39FDEE3AFED0E023F9FA
:10067300D0E0F84002801BC3EE13FEED13FDEC1334
:10068300FCEF135002D2E0FF08B800067F7F74FF2F
:10069300802EEF3350178CF020F00260100CBC005A
:1006A3000C0DBD00080EBE000408E860DFE933E866
:1006B30013FFEE2313FE4F4D4C8008E95480FFE4F3
:1006C300FEFDFCEE33EF33F47004FCFD7E80D0E0DE
:1006D300FBD0E0FAD0E0F8D0E0CFC618CEC618CDF4
:1006E300C618CCC6F9221203347004181818221243
:1006F3000343700D74FFF61819F61819F61819F656
:1007030022E7548066F61202F6700F12030070F0AF
:1007130014F608F608F608F680D1120300700CF6FA
:1007230008F608768008E6447F80EC120322700CFA
:1007330012030D60BFE65480F6E480BB12030D7014
:100743000519191980A5E869700C763F1876801889
:10075300F618F6E8F922E6CDC0E018ECC0E0E6337F
:10076300CD33CDD313F6E719FCE7191933CC33C3D3
:10077300947F400ECD9D502408E65480F6E418F68D
:10078300800FF4043D14501408E6447FF618768075
:10079300E418F618F6D0E0FCD0E0FD22CCD313CC5D
:1007A300FD18E4C6CBC0E018E4C6CAC0E00808EDF3
:1007B30008C633E613F618E433C675F003C3CA97C5
:1007C300CA09CB97CB199C40047D08802EBD00033A
:1007D30002089216B6FF050606081618C3CA33CADE
:1007E300CB33CB33CA27CA09CB37CB193CC37D08DC
:1007F300803E187D0820E75CC633C6CA33CACB33B4
:10080300CB33DDF1D5F0EB30E77BCA97CA09CB9741
:100813004ACB199C406F4B7025E620E02180661877
:100823007D08C3CA97CA09CB97CB199CD3C633C6D5
:10083300CA33CACB33CB3350C9DDE7D5F0E1D3E4B8
:10084300C636C608C636C608C636C608C636C6186D
:1008530018188031C3CA97CA09CB97CB199CB340E8
:1008630097C633C6CA33CACB33CB33DD34D5F02E68
:10087300C6A2E0C640C8CA27CA09CB37194A70BE08
:10088300CB3CB480B90808E63308E633601F181878
:1008930018D0E0FAD0E0FBD0E0FCD0E0FD22187DD8
:1008A30008CA27CA09CB37CB193CD3808013F61863
:1008B300E4B67F11F618B6FF0EF618C60470D20818
:1008C30008768080CAF618F618F680C5181818E45A
:1008D300C396F608E496F608E496F608E496F6223C
:1008E300E0F608A3E0F608A3E0F608A3E0F622E6A4
:1008F300F008A3E6F008A3E6F008A3E6F022E0FA86
:10090300A3E0FBA3E0FCA3E0FD22EAF0A3EBF0A34A
:10091300ECF0A3EDF022C3E498F8E499F912095A34
:100923008026C3E49AFAE49BFBE920E7E912095A1B
:10093300E498F8E499F922C3E498F8E499F91209E0
:100943005AE498F8E499F9C3E49AFAE49BFB22EB9E
:1009530020E7CFE920E7E0B90010BB0008E88AF000
:1009630084F8AAF022E4FBC8FA22EB70227B10C8B9
:1009730033C8C933C9335007C39AC3DBF280069A1D
:1009830050012ADBEAC833F4C8C933F4C9FA227523
:10099300F008E4C833C8C933C933C99AC99B5004A2
:1009A300C92AC93BD5F0ECFBC833F4C8E4C9FA2221
:1009B300700422600D18C6C333C608C633C6D5E01B
:1009C300F41822251010AF08F51040021511800805
:1009D300F51040021511D2AF22C0D0251010AF0878
:1009E300F510500205118008F51050020511D2AF21
:1009F300D0D0222510F582E43511F58322E4732546
:100A030010C582C0E0E51134FFC583C0E0E510C323
:100A1300958224F810AF088583118582108008859C
:100A23008311858210D2AFCEF0A3E520F0A378081E
:100A3300E608F0A3DEFAEFF0A3E58124FAF8E6086E
:100A4300F0A3E608F0A3E608F0A30808E608F0A37D
:100A5300E608F0A315811581D0E0FED0E0F81581FA
:100A630015811581E8C0E0EEC0E022851183851071
:100A730082E0A3FEE0A3F5207808E0A3F608DFFAFE
:100A8300E0A3FFE0A3C0E0E0A3C0E0E0A3C0E0E098
:100A9300A3C0E0E0A3C0E010AF08858210858311F6
:100AA3008008858210858311D2AFD083D082020063
:100AB300FBC0D02510C582C0E0E51134FFC583C05B
:100AC300E0E510C3958224F310AF08858311858276
:100AD300108008858311858210D2AFC8F0A3E9F096
:100AE300A3EAF0A3EBF0A37908E709F0A3D8FAECA3
:100AF300F0A3EDF0A3EEF0A3EFF0A3D0E0F0A3D0CA
:100B0300E0F0A3D0E0F0A3E520F0A3E5F0F0A3220A
:100B1300851183851082E0C0E0A3E0F9A3E0FAA386
:100B2300E0FBA37808E0F608A3DFFAE0FCA3E0FD0E
:100B3300A3E0FEA3E0FFA3E0C0E0A3E0C0E0A3E0E6
:100B4300F5D0A3E0F520A3E0A3F5F010AF0885836B
:100B5300118582108008858311858210D2AFD082DF
:100B6300D083D0E0F8D0E032C0E074F2120AB4A22D
:100B7300AFE433FEC2AFE5E9A2E6501A900289E082
:100B8300F8A3E0F9E8496008E0F5838882120A00D7
:100B9300759B0053E9BFEEA2E092AF7F01020B13F6
:100BA300C0E074F1120AB4C2C5E58960477E0075DE
:100BB3000801750900EE78081209B3AF08E5895FEB
:100BC300602BEEC333F8E433F9748B28F582740297
:100BD300120C526014EEC333F8E433F9748B28F526
:100BE300827402120C5D120A00EFF452890EEEC3F6
:100BF300940840BB7F02020B13C0E074F1120AB4E5
:100C0300C2EBE58A60477E00750801750900EE783E
:100C1300081209B3AF08E58A5F602BEEC333F8E42B
:100C230033F9749B28F5827402120C526014EEC3DC
:100C330033F8E433F9749B28F5827402120C5D12C5
:100C43000A00EFF4528A0EEEC3940840BB80A53924
:100C5300F583E0F8A3E0F9E8492239F583E0F8A346
:100C6300E0F583888222C0E074F1120AB4C2E8E599
:100C73008B60477E00750801750900EE780812093C
:100C8300B3AF08E58B5F602BEEC333F8E433F9743D
:100C9300AB28F5827402120C526014EEC333F8E4ED
:100CA30033F974AB28F5827402120C5D120A00EF5B
:100CB300F4528B0EEEC3940540BB020BF7C0E074F5
:100CC300F2120AB4C2C779041201DF020B9EC0827A
:100CD300C083120179D2AF79017A097B02120173C1
:100CE300900209E0C2E7F0640570357905120DAC96
:100CF3005004D2F08002C2F0A2F0E4339002D2F0AA
:100D030090020EE0A2E74003020DA490020CE0F86B
:100D1300900200E0686003020DA4A37401020DA316
:100D2300E024F59002CFF0900209E0F9120DAC50E7
:100D330004D2F08002C2F0A2F0E4339002D2F09029
:100D43000211E0F8A3E0F99002CBE8F0A3E9F090F8
:100D530002D07413F0A37402F09002CFE0F833953D
:100D6300E0F9741328F8740239F988828983E090D2
:100D730002D3F088828983A3E0A2E7501C9002CAC1
:100D8300E0F890020CE068601090020AE054DF641F
:100D93004170069002D47401F090020CE09002CAF4
:100DA300F0C2AF12017F020F597A0A7B021201735C
:100DB30090020AE0A2E52274F7120A02EAFEEBFFB0
:100DC30012016DE9640170047901806FC2AF900272
:100DD30007EEF0A3EFF09002D0E4F0A3F09002024C
:100DE30004F09002D612090190020312090D75F066
:100DF30005120E41A3A3E0A424D490618FF09002C6
:100E030008E0F5838882E0F8A3E0F9E8906174F0E4
:100E1300E9A3F0120E41E0F8A3E0F9E8906172F063
:100E2300E9A3F0E5A8F8C2AF9002897449F0A3746E
:100E330001F0E8A2E792AFD2AF79000213AE9002BD
:100E430007E0F8A3E0F5838882A3A322E5C65480D4
:100E5300F853BEFBE59DA2E550FAE59DA2E240F4FE
:100E6300007401697007744948F5C68005E970028A
:100E730088C6E5C6F8E59E6870FB43BE040200FB26
:100E8300E9F8E59EA2E640047901801AE87005536B
:100E9300C67F8008740168700343C680E5C6F9E520
:100EA3009E6970FB79000200FBEBC313FBEA13FAA4
:100EB300EAF8EBF9E824FFFAE934FFFBE8496013A9
:100EC300000000000000000000000000000000001F
:100ED3000080DD0200FB74F7120A02EAFEEBFFEE6C
:100EE300F8EFF9E824FFFEE934FFFFE84960097AE7
:100EF300E87B0312016180E77F01020A6EC082C0B2
:100F030083906189E04460F09061FA7409F0906124
:100F1300B27415F09061AEE4F012017F790080366F
:100F2300C082C083800DE5D98A828B83F0A3AA8215
:100F3300AB8319E970F0801EC082C0839061A3E087
:100F4300C2E6F0539AFE800EC082C0839061A3E094
:100F5300D2E6F0439A01D083D0820200FBC082C064
:100F630083790112018B790212018B7A327B001291
:100F7300016780EDE9146005146007800863A00130
:100F830080036380010200FB74F7120A0278007980
:100F930000801A8A828B83E0F5F9A3AA82AB83A22D
:100FA300EA50FCC2EAE8240108E93400F9C3E89CEA
:100FB300E99DA2D265D03340DA0213AE89F9A2EAE1
:100FC30050FCC2EA0200FB74F71209C67900120151
:100FD3005BE960107901120155790012015BE96048
:100FE30003120185790012015543FF01D2A0D2A05B
:100FF300D2AF53F4F943FE0C53F6F9D292D2937560
:10100300F10075F33043FF40D2FF43FC0B43FAD8A2
:10101300C2EA759700759600759500D2ADC2C7D226
:10102300AF12016DE9640170031201859002B5747A
:1010330020F0A37425F0A37407F0A37420F0A37425
:1010430019F0A37401F07AB57B0212014FE9640130
:101053007003120185900202E4F075E1EF75E1EC93
:101063001201D3E97002C2801201A9798A1214BE57
:10107300FE79011214BEFF79CE1214BEF508791061
:101083001214BEF5091201AF7C067D007ABB7B0208
:10109300120191EE4F450845091212A71201A979D1
:1010A3008A12129279001212A07A017B0012019D1A
:1010B3001201A9798B121296C4540FFEE9540FF54D
:1010C3000979001201C1E9F50A1201AFE50AF50C2D
:1010D300E509F50DE4F50EF50F780C120200900208
:1010E300DA78081208E3780C7908120352750801BC
:1010F300750900EE78081209B3E5093395E0F50A9E
:10110300F50B78081201E5780C7908120352740381
:101113001209F6780C1208F27C047D007AC27B0275
:1011230012019174031209F678081208E39002DEA3
:10113300780C1208E37808790C1206E97808120291
:1011430067E5081212851209F678081208E390027F
:10115300E2780C1208E37808790C1206E978081291
:101163000267A808A9097A0A7B00120952EA121237
:10117300851209F612090112025DA808A9097A0A63
:101183007B00120952EA1212A7D2F0A2A030F0019A
:10119300B392A07AB87B0B1201671214C379FE12C3
:1011A30012A07A987B3A1201A31214C379E71212A0
:1011B300921201A9798112129685108285118312E8
:1011C30014D37901851082851183AA82AB8312011E
:1011D300C71201AF851082851183E0547EF0D2E7F8
:1011E300F01214C379E6121292851082851183E0FE
:1011F300F91212A074011209F6AA82AB83790112C3
:1012030001CD74071209F6AA82AB8379001201CDCE
:1012130074011209F6E054FCF508A3E0F509E4F5BE
:101223000AF50B78081202009002E6780C1208E324
:101233007808790C1203529002EA780C1208E378CA
:1012430008790C1204D27C027D007AC77B0212015A
:10125300917808120267AE0875F064EE8412128B5F
:1012630075F00AEE8475F00A84E5F012128BEE75C0
:10127300F00A84E5F01212A77AB87B0B1201670219
:10128300109F12128B7403222430F9120197221239
:1012930014CC221214CC79011201C1E9221214CC0C
:1012A3001201AF2212128B790D120197790A1201E2
:1012B30097228008EA24FF1AEB34FFFBEA4B70F411
:1012C3000200FB8008EA24FF1AEB34FFFBEA4B70B1
:1012D300F40200FBC082C08343FE02D292D2937A0F
:1012E300047B0012019DC2927A047B0012019DC20D
:1012F30093020F59C082C08343FE02C293C2927A03
:1013030004121338D2927A047B0012019D020F5902
:10131300C082C08353FEFDD2927A0112133874FB4C
:10132300A292500A1470F91201AF79018004C2939A
:101333007900020F597B0012019DD2937A017B0041
:1013430012019D2274F7120A02E9FF43FE02C293BF
:101353007E08EFA2E79292C333FF1213B37A027BA4
:101363000012019D1EEE70EA804174F7120A028991
:10137300087E0053FEFD7F08C2937A027B001201B0
:101383009DD293EEC333FEA29250010E7A017B00ED
:1013930012019D1FEF70E1E508C29343FE02700442
:1013A300D2928002C2921213B3EEF97F01020A6E47
:1013B3007A027B0012019DD2937A027B0012019D77
:1013C300C2932274F5120A02E9FD750A00780080BF
:1013D30009C333F50A19E9701708E8C39D501D883E
:1013E30008EA2508F582EB3400F583E0620A790800
:1013F300E50AA2E750DBC333643180D7EC650A60AA
:10140300047904800279007F03020A6E74F4120ADD
:101413000274FE1209C689098A0A8B0B7E007F00BB
:101423001214C3E9F508E5096005146006800B7919
:10143300F5800279F31214BE42081201A97A0A7BDD
:10144300001201A3EEF8EFF9E824010EE93400FFDE
:10145300C3E89414E99400500779811214BE70DA3A
:10146300C3EE9414EF94004006E508D2E1F5087941
:10147300011201C1E9851082851183F0850A8285F5
:101483000B83F079011201C174011209F6E9F085A9
:101493000A82850B83A31214D379028510828511E6
:1014A30083AA82AB831201C7E9FE1201AFE5084E9E
:1014B300F974021209DC7F04020A6E1214CCE922C9
:1014C3001201A979801214CC221201BB1201B52298
:1014D300F079001201C1E9FC2274F7120A027E00BE
:1014E300D281D282D283D284D285D286D287EE6051
:1014F3002A14602314601C14601514600E14600712
:1015030014701AC2878016C2868012C285800EC2EA
:1015130084800AC2838006C2828002C281EEF912ED
:1015230001D9E960070EEEC3940740B474076E70E7
:10153300047901800279000213AE74F7120A02E9FA
:10154300FF7900C39408507EE5A0F508E590F8E51F
:1015530090FAE590FBE590FCE590FDA292E433FE62
:10156300EDA2E3E433FDECA2E4E433FCEBA2E5E417
:1015730033FBEAA2E6E433FAE8A2E7E433F8E5084A
:10158300A2E0E433282A2B2C2D2E64067038EF605A
:101593001414601814601B14601C14601D14601E66
:1015A30014601F8021A2A0401D09801AA297401633
:1015B30080F7A29680F8A29580F4A29480F0A2937B
:1015C30080ECA29250E30213AEE9C394045008E9FD
:0D15D30042BE75870180037587000200FB92
:04000005000000E314
:00000001FF
