:020000040000FA
:030000000200E318
:03002B000204F6D6
:0300330002049F25
:03006B000203D9B4
:03007B000204324A
:100083000203A100000080FB120113B90003020068
:10009300CDE4900101783179028002F0A3D8FCD934
:1000A300FA900231AA82AB83900116781A79018003
:1000B30015E493A3AC82AD838A828B83F0A3AA82D7
:1000C300AB838C828D83D8E9D9E7758296758309D2
:1000D30074001200F575828675830074001200F5B2
:1000E30075D0007581BF751001751101759F0002F0
:1000F300008BC09FF59FE473D09F22D083D082C032
:100103009FE493C0E0740193C0E0740293F59F22CF
:10011300790122FF00000000000000000000003110
:1001230032330D0A00000000000001001200FE0738
:1001330005001200FEF005001200FE6F060012001B
:10014300FE9307001200FEC707001200FEF007002F
:100153001200FE1408001200FE4108001200FE689F
:1001630008001200FE8B08001200FEB40800120003
:10017300FED108001200FEE108001200FEF10800A3
:100183001200FE0809001200FE1A09001200FE2CDC
:1001930009001200FE4009001200FE900A0012003E
:1001A300FEF30A001200FE820B006016080808C660
:1001B300C313C618C613C618C613C618C613C6D5A6
:1001C300E0EA227009080808226016181818C6C346
:1001D30033C608C633C608C633C608C633C6D5E019
:1001E300EA22E026F608A3E036F608A3E036F6088E
:1001F300A3E036F622E647F60809E647F60809E6DD
:1002030047F60809E647F622E0FAA3E0FBA3E0FC81
:10021300A3E0FD22EAF0A3EBF0A3ECF0A3EDF022C0
:10022300700422600D18C6C333C608C633C6D5E0B2
:10023300F41822E4732510C582C0E0E51134FFC52C
:1002430083C0E0E510C3958224F810AF08858311BD
:100253008582108008858311858210D2AFCEF0A3EA
:10026300E520F0A37808E608F0A3DEFAEFF0A3E5B3
:100273008124FAF8E608F0A3E608F0A3E608F0A361
:100283000808E608F0A3E608F0A315811581D0E07D
:10029300FED0E0F8158115811581E8C0E0EEC0E0DD
:1002A30022851183851082E0A3FEE0A3F520780860
:1002B300E0A3F608DFFAE0A3FFE0A3C0E0E0A3C0F9
:1002C300E0E0A3C0E0E0A3C0E0E0A3C0E010AF081B
:1002D3008582108583118008858210858311D2AFB2
:1002E300D083D0820200FBC0D02510C582C0E0E5D8
:1002F3001134FFC583C0E0E510C3958224F310AF2A
:10030300088583118582108008858311858210D228
:10031300AFC8F0A3E9F0A3EAF0A3EBF0A37908E7F1
:1003230009F0A3D8FAECF0A3EDF0A3EEF0A3EFF0FD
:10033300A3D0E0F0A3D0E0F0A3D0E0F0A3E520F059
:10034300A3E5F0F0A322851183851082E0C0E0A32A
:10035300E0F9A3E0FAA3E0FBA37808E0F608A3DF43
:10036300FAE0FCA3E0FDA3E0FEA3E0FFA3E0C0E00E
:10037300A3E0C0E0A3E0F5D0A3E0F520A3E0A3F55C
:10038300F010AF088583118582108008858311855D
:100393008210D2AFD082D083D0E0F8D0E032C0E078
:1003A30074F21202EAA2AFE433FEC2AFE5E9A2E6B9
:1003B300501A9001FDE0F8A3E0F9E8496008E0F580
:1003C300838882120236759B0053E9BFEEA2E09246
:1003D300AF7F01020349C0E074F11202EAC2C5E52E
:1003E3008960477E00750801750900EE78081202DE
:1003F30023AF08E5895F602BEEC333F8E433F97468
:10040300FF28F58274011204886014EEC333F8E404
:1004130033F974FF28F5827401120493120236EF44
:10042300F452890EEEC3940840BB7F02020349C015
:10043300E074F11202EAC2EBE58A60477E007508B8
:1004430001750900EE7808120223AF08E58A5F60A0
:100453002BEEC333F8E433F9740F28F582740212D8
:1004630004886014EEC333F8E433F9740F28F5827B
:100473007402120493120236EFF4528A0EEEC394FE
:100483000840BB80A539F583E0F8A3E0F9E84922E9
:1004930039F583E0F8A3E0F583888222C0E074F1A4
:1004A3001202EAC2E8E58B60477E00750801750910
:1004B30000EE7808120223AF08E58B5F602BEEC3D2
:1004C30033F8E433F9741F28F58274021204886048
:1004D30014EEC333F8E433F9741F28F5827402125F
:1004E3000493120236EFF4528B0EEEC3940540BB15
:1004F30002042DC0E074F21202EAC2C779041201A9
:10050300A70203D4C082C083120171D2AF79017AEA
:100513007D7B0112016B90017DE0C2E7F064057001
:100523003579051205E25004D2F08002C2F0A2F040
:10053300E433900239F0900182E0A2E74003020520
:10054300DA900180E0F8900101E06860030205DAC7
:10055300A374010205D9E024F5900236F090017DE1
:10056300E0F91205E25004D2F08002C2F0A2F0E4F6
:1005730033900239F0900185E0F8A3E0F99002325C
:10058300E8F0A3E9F09002377487F0A37401F090C8
:100593000236E0F83395E0F9748728F8740139F9E5
:1005A30088828983E090023AF088828983A3E0A25B
:1005B300E7501C900231E0F8900180E068601090F1
:1005C300017EE054DF6441700690023B7401F090B9
:1005D3000180E0900231F0C2AF1201770208CA7ABB
:1005E3007E7B0112016B90017EE0A2E52274F7127B
:1005F3000238EAFEEBFF12015FE96401700479013E
:100603008067C2AF900108EEF0A3EFF0900237E4E9
:10061300F0A3F090010304F090024212020B900148
:100623000412021775F005120783E0A424D4906125
:100633008FF0900109120765E8906174F0E9A3F067
:10064300900108E0F8A3120770E8906172F0E9A343
:10065300F0E5A8F8C2AF9001FD742FF0A37401F088
:10066300E8A2E792AFD2AF7900020AEE74F5120264
:1006730038EAFEEBFF8C088D09890A900103E070CC
:100683000675E1EC75E1E3E9C394674003750A6716
:10069300906193E0542270F8120171740B250A9053
:1006A300010AF012077D90010B60047461800274EB
:1006B30041F0A37488F0900101E090010DF09001E6
:1006C3000912077090010EE8F0A3E9F0A3EEF0A37E
:1006D300EFF0900108E0F8A3120765900112E8F02B
:1006E300A3E9F07A0080218A82A882E50828F582AE
:1006F300E5093400F583E0C0E0741428F582740141
:100703003400F583D0E0F00AEAC3950A40D9740AAD
:10071300250AF97A0A7B0112016512017775E1E96D
:10072300E591A2E150FA7591FD12077D60129001E7
:1007330002E4F07A4A7B02120153900102E0600462
:10074300790080027901900103E0700675E1EF758D
:10075300E1ECE9A2E04006900101E004F07F03022E
:1007630002A4E0F5838882E0F8A3E0F922E0F583B0
:100773008882A3A3E0F8A3E0F922120783A3E0226F
:10078300900108E0F8A3E0F5838882A3A3A3A32242
:10079300E5C65480F853BEFBE59DA2E550FAE59DFE
:1007A300A2E240F4007401697007744948F5C680F9
:1007B30005E9700288C6E5C6F8E59E6870FB43BE8E
:1007C300040200FBE9F8E59EA2E640047901801AE1
:1007D300E8700553C67F8008740168700343C680C0
:1007E300E5C6F9E59E6970FB79000200FBC082C093
:1007F300837900120147E960107901120141790000
:10080300120147E9600312017D79001201410208D8
:10081300CAEBC313FBEA13FAEAF8EBF9E824FFFA8D
:10082300E934FFFBE849601300000000000000000A
:1008330000000000000000000080DD0200FB74F7F0
:10084300120238EAFEEBFFEEF8EFF9E824FFFEE9C7
:1008530034FFFFE84960097AE87B0312015380E71C
:100863007F010202A4C082C083906189E04460F0EA
:100873009061FA7409F09061B27415F09061AEE47E
:10088300F01201777900803F74F612023875E1EEB9
:100893007591FD780080108808EA2508F582EB340D
:1008A30000F583E0F5D908E8C39940EB7F02020223
:1008B300A4C082C083800DE5D98A828B83F0A3AA6A
:1008C30082AB8319E970F0D083D0820200FBC0822F
:1008D300C0839061A3E0C2E6F0539AFE80E9C08230
:1008E300C0839061A3E0D2E6F0439A0180D9C0822D
:1008F300C083790112018F790212018F7A327B0052
:1009030012015980EDE91460051460068006D2A037
:100913008002D2800200FBE91460051460068006A1
:10092300C2A08002C2800200FBE9146005146007C4
:10093300800863A00180036380010200FB74F71247
:100943000238E9FE900229700874EFF0A374BE80A8
:10095300067420F0A37425F0A37407F0A37420F0A9
:10096300A37419F0A37401F07A297B02120135E90B
:100973006401700312017DEE900103700B7401F0AA
:1009830075E1EC75E1E38008E4F075E1EF75E1EC06
:10099300020AEE12014D43FF01D2A043FD01D280B2
:1009A30053F4FE53FEFE43F60175FDFF75FE02751B
:1009B300FF00D291D280D2AF7597007596007595DE
:1009C30000D2ADC2C7D2AF12015FE9640170031256
:1009D300017D790112019512019BE97005790212DB
:1009E300018975FD0175FE0275FF0179057C3D7D69
:1009F300027AEF7BBE12013B90022FE02401F0A3A9
:100A0300E03400F079011201897AF47B0112015973
:100A13007901120183E595F50CE596F508E4F50DEA
:100A2300F50EF50FF509F50AF50B740878081201B0
:100A3300C6780C79081201F8859708E4F509741053
:100A430078081201C6780C79081201F890024678EA
:100A53000C1201E5850C08850D09850E0A850F0B1F
:100A6300741078081201ADE508F597850D09E509BD
:100A7300F596E50CF59579021201A712014D7A0559
:100A83007B0012015979011201950209EE74F712E4
:100A930002387E00D281D282D283D284D285D2869A
:100AA300D287EE602A14602314601C14601514604E
:100AB3000E14600714701AC2878016C2868012C291
:100AC30085800EC284800AC2838006C2828002C2ED
:100AD30081EEF91201A1E960070EEEC3940740B459
:100AE30074076E70047901800279007F010202A409
:100AF30074F7120238E9FF7900C39408507EE5A029
:100B0300F508E590F8E590FAE590FBE590FCE590B3
:100B1300FDA292E433FEEDA2E3E433FDECA2E4E4B0
:100B230033FCEBA2E5E433FBEAA2E6E433FAE8A202
:100B3300E7E433F8E508A2E0E433282A2B2C2D2E32
:100B430064067038EF601414601814601B14601C82
:100B530014601D14601E14601F8021A2A0401D0993
:100B6300801AA297401680F7A29680F8A29580F487
:100B7300A29480F0A29380ECA29250E3020AEEE9E1
:100B8300C394045008E942BE75870180037587004A
:030B93000200FB62
:04000005000000E314
:00000001FF
