:020000040000FA
:030000000200E318
:03001300020510D3
:03002B00020529A2
:030033000204CAFA
:03006B0002042C60
:03007B0002047408
:100083000203F400000080FB120113B90003020015
:10009300CDE4900200783979028002F0A3D8FCD92C
:1000A300FA900338AA82AB83900116781179018004
:1000B30015E493A3AC82AD838A828B83F0A3AA82D7
:1000C300AB838C828D83D8E9D9E77582DF75830989
:1000D30074001200F575828675830074001200F5B2
:1000E30075D0007581BF751000751102759F0002F0
:1000F300008BC09FF59FE473D09F22D083D082C032
:100103009FE493C0E0740193C0E0740293F59F22CF
:10011300790122FF00000000000000000000000041
:100123000000001200FE3A05001200FE1F06001236
:1001330000FEA206001200FED107001200FE050811
:10014300001200FE2E08001200FE5208001200FEEC
:100153007F08001200FEA608001200FEC908001264
:1001630000FEF208001200FE1A09001200FE2A091E
:10017300001200FE3A09001200FE5109001200FEAF
:100183006309001200FE7509001200FE89090012BE
:1001930000FE960B001200FEAD0B001200FEC90B11
:1001A300001200FEFC0B001200FE230C001200FEE6
:1001B300770C001200FEAE0C001200FED00C0012F1
:1001C30000FE240D001200FEB50D001200FE160EF7
:1001D300001200FEA50E001200FEB90E0060160804
:1001E3000808C6C313C618C613C618C613C618C64E
:1001F30013C6D5E0EA227009080808226016181809
:1002030018C6C333C608C633C608C633C608C633C2
:10021300C6D5E0EA22E627F60809E637F60809E636
:1002230037F60809E637F622E647F60809E647F601
:100233000809E647F60809E647F622E0FAA3E0FBD9
:10024300A3E0FCA3E0FD22EAF0A3EBF0A3ECF0A310
:10025300EDF022700422600D18C6C333C608C633FE
:10026300C6D5E0F41822251010AF08F5104002158A
:10027300118008F51040021511D2AF222510F58226
:10028300E43511F58322E4732510C582C0E0E5113E
:1002930034FFC583C0E0E510C3958224F810AF088E
:1002A3008583118582108008858311858210D2AFE2
:1002B300CEF0A3E520F0A37808E608F0A3DEFAEF7A
:1002C300F0A3E58124FAF8E608F0A3E608F0A3E634
:1002D30008F0A30808E608F0A3E608F0A3158115C3
:1002E30081D0E0FED0E0F8158115811581E8C0E0EA
:1002F300EEC0E022851183851082E0A3FEE0A3F522
:10030300207808E0A3F608DFFAE0A3FFE0A3C0E04B
:10031300E0A3C0E0E0A3C0E0E0A3C0E0E0A3C0E04E
:1003230010AF08858210858311800885821085832C
:1003330011D2AFD083D0820200FBC0D02510C5827A
:10034300C0E0E51134FFC583C0E0E510C395822406
:10035300F310AF088583118582108008858311858A
:100363008210D2AFC8F0A3E9F0A3EAF0A3EBF0A3A5
:100373007908E709F0A3D8FAECF0A3EDF0A3EEF0C7
:10038300A3EFF0A3D0E0F0A3D0E0F0A3D0E0F0A37C
:10039300E520F0A3E5F0F0A322851183851082E028
:1003A300C0E0A3E0F9A3E0FAA3E0FBA37808E0F63A
:1003B30008A3DFFAE0FCA3E0FDA3E0FEA3E0FFA3B4
:1003C300E0C0E0A3E0C0E0A3E0F5D0A3E0F520A304
:1003D300E0A3F5F010AF08858311858210800885AE
:1003E3008311858210D2AFD082D083D0E0F8D0E0E1
:1003F30032C0E074F212033DA2AFE433FEC2AFE5B4
:10040300E9A2E6501A9002FCE0F8A3E0F9E849609B
:1004130008E0F5838882120289759B0053E9BFEED9
:10042300A2E092AF7F0102039CC0E074F112033D8E
:10043300C2C5E58960367E00750801750900EE784E
:1004430008120256AF08E5895F601AEEC333F8E479
:1004530033F974FE28F58274021204B960031202A0
:1004630089EFF452890EEEC3940840CC7F02020355
:100473009CC0E074F112033DC2EBE58A60367E0056
:10048300750801750900EE7808120256AF08E58A6F
:100493005F601AEEC333F8E433F9740E28F58274FF
:1004A300031204B96003120289EFF4528A0EEEC3F9
:1004B300940840CC80B639F583E0F8A3E0F988824C
:1004C3008983E582458322C0E074F112033DC2E8CB
:1004D300E58B60367E00750801750900EE78081219
:1004E3000256AF08E58B5F601AEEC333F8E433F9C5
:1004F300741E28F58274031204B96003120289EF93
:10050300F4528B0EEEC3940540CC02046FC0E0C0DE
:10051300D0C082C083C28BE5C1900330F0D083D0BA
:1005230082D0D0D0E032C0E074F212033DC2C7796A
:10053300041201D4020427C082C083120168D2AF1F
:1005430079017A7C7B0212016290027CE0C2E7F0BF
:100553006405703479051206115004D2F08002C28A
:10056300F0A2F0E433900340F0900281E0A2E74070
:100573000302060990027FE0F8900200E06860033E
:10058300020609A37401807DE024F590033DF090F9
:10059300027CE0F91206115004D2F08002C2F0A2EC
:1005A300F0E433900340F0900284E0F8A3E0F99084
:1005B3000339E8F0A3E9F090033E7486F0A37402D4
:1005C300F090033DE0F83395E0F9748628F874025F
:1005D30039F988828983E0900341F090027FE0FA41
:1005E30088828983A3E0A2E75017900338E06A600A
:1005F3001090027DE054DF64417006900342740161
:10060300F0EA900338F0C2AF12016E0209137A7D4B
:100613007B0212016290027DE0A2E52274F71202CE
:100623008BEAFEEBFF120156E96401700479018045
:100633006BC2AF900207EEF0A3EFF090033EE4F03D
:10064300A3F090020204F090034412023E900203CE
:1006530012024A75F0051207A3A3A3A3A3E0A424DF
:10066300D490618FF09002081207B3E8906174F0A0
:10067300E9A3F0900207E0F8A31207BCE8906172C7
:10068300F0E9A3F0E5A8F8C2AF9002FC7426F0A34A
:100693007401F0E8A2E792AFD2AF7900020CCB74F9
:1006A300F512028BEAFEEBFF8C088D09890A900292
:1006B30002E0700675E1EC75E1E3E9C3946740037A
:1006C300750A67906193E0542270F8120168740B05
:1006D300250A900209F01207C790020A60047461A8
:1006E30080027441F0A37488F0900200E090020C41
:1006F300F09002081207BC90020DE8F0A3E9F0A302
:10070300EEF0A3EFF0900207E0F8A31207B3900214
:1007130011E8F0A3E9F07A0080218A82A882E50833
:1007230028F582E5093400F583E0C0E0741328F569
:100733008274023400F583D0E0F00AEAC3950A40DC
:10074300D9740A250AF97A097B0212015C12016E37
:1007530075E1E9E591A2E150FA7591FD1207C760D1
:1007630012900201E4F07A4A7B0212014A900201DC
:10077300E06004790080027901900202E07006755E
:10078300E1EF75E1ECE9A2E040111207A3E0C454E4
:10079300F0F8900200E004540F48F07F030202F7E0
:1007A3001207A722900207E0F8A3E0F583888222CC
:1007B3001207ADE0F8A3E0F9221207ADA3A3E0F816
:1007C300A3E0F9221207A7A3A3A3A3A3E022E5C6EC
:1007D3005480F853BEFBE59DA2E550FAE59DA2E2E5
:1007E30040F4007401697007744948F5C68005E94F
:1007F300700288C6E5C6F8E59E6870FB43BE040236
:1008030000FBE9F8E59EA2E640047901801AE8704E
:100813000553C67F8008740168700343C680E5C62C
:10082300F9E59E6970FB79000200FBC082C0837901
:100833000012013EE96010790112013879001201BA
:100843003EE960031201747900120138020913EBC7
:10085300C313FBEA13FAEAF8EBF9E824FFFAE934E5
:10086300FFFBE849601300000000000000000000E7
:100873000000000000000080DD0200FB74F712029C
:100883008BEAFEEBFFEEF8EFF9E824FFFEE934FF15
:10089300FFE84960097AE87B0312014A80E77F0198
:1008A3000202F7C082C083906189E04460F09061E6
:1008B300FA7409F09061B27415F09061AEE4F0122D
:1008C300016E7900804A74F612028B75E1EE759120
:1008D300FD780080108808EA2508F582EB3400F5DE
:1008E30083E0F5D908E8C39940EB7F020202F7C021
:1008F30082C083800DE5D98A828B83F0A3AA82AB61
:100903008319E970F080097A047B0012014AC293CB
:10091300D083D0820200FBC082C0839061A3E0C277
:10092300E6F0539AFE80E9C082C0839061A3E0D2CF
:10093300E6F0439A0180D9C082C08379011201860F
:1009430079021201867A327B0012015080EDE9149C
:1009530060051460068006D2A08002D2800200FBEC
:10096300E91460051460068006C2A08002C28002FA
:1009730000FBE9146005146007800863A00180038D
:100983006380010200FB74F712028BE9FE900328D7
:10099300700874EFF0A374BE80067421F0A374256D
:1009A300F0A37407F0A37420F0A37419F0A37401E7
:1009B300F07A287B0312012CE9640170031201749D
:1009C300EE900202700B7401F075E1EC75E1E380C7
:1009D30008E4F075E1EF75E1EC020CCB74FB120255
:1009E3006912014443FF01D2A0D2A0D2AF53F4F95C
:1009F30043FE0C53F6F9D292D29375F10075F3309E
:100A030043FF40D2FF43FC0B43FAD8C2EAD2FE4372
:100A1300A888759700759600759500D2ADC2C7D2A8
:100A2300AF120156E96401700312017479011201D6
:100A33008C1201C8E9700579021201807AB87B0B28
:100A4300120150D292C2937E09D293120C991EEED8
:100A530070F71201B0120B89F50D7903120B8EF5A5
:100A63000B1201927997120B8EF50A79001201AAE3
:100A7300E9900332F0120B89F5097904120B8EF514
:100A8300081201927997120B8EFE79001201AAE9DE
:100A9300900333F01201987901851082851183AC9C
:100AA30082AD83740312027FAA82AB831201C2E96F
:100AB300FF740312027FA3E0900334F07403120265
:100AC3007FE0900335F07900851082851183AC8235
:100AD300AD83740112027FAA82AB831201C2E9F5CE
:100AE3000C740112027FA3E0900336F0740112022A
:100AF3007FE0900337F01201B079071201B6E9F5F0
:100B03000F79011201BCE9F50E79001201BCE50D64
:100B1300450B450A450945084E4F450C450FF8E579
:100B23000EA2E65004E8D2E3F8E8900331F0790727
:100B33007C317D037AEF7BBE120132E9701590039D
:100B43002EE02401F0A3E03400F079011201807E4D
:100B53000080027E017AF47B0112015079011201B7
:100B63007AEEA2E050047902800279FF1201DA12D0
:100B730001447A057B00120150790112018CEEA227
:100B8300E040AB020A5812019279961201A41201B5
:100B93009EE922C082C08343FE04D292D2937A0498
:100BA3007B0012014AC29202090AC082C08343FE3B
:100BB30004C293C2927A04120BF1D2927A047B009C
:100BC30012014A020913C082C08353FEFBD2927AF8
:100BD30001120BF174FBA292500A1470F9120198DE
:100BE30079018007C29343FE047900020913120CB2
:100BF300627A017B0012014A2274F712028BE9FF29
:100C030043FE04C2937E08EFA2E79292C333FF121E
:100C13000C6A7A027B0012014A1EEE70EA020CCBC8
:100C230074F712028B89087E0053FEFB7F08C29380
:100C3300120C60EEC333FEA29250010E7A017B00C8
:100C430012014A1FEF70E7E508C29343FE047004E4
:100C5300D2928002C292120C6AEEF9806B7A027B06
:100C63000012014AD29322120C607A027B00120115
:100C73004AC29322C082C08343FE04D292C293121B
:100C83000D17C292120C997A047B0012014A120DBD
:100C930017D29202090A120C9D227A047B001201D8
:100CA3004AC2937A047B0012014A2274F712028B20
:100CB300E9FE7F80EF5E6004D2928002C292D293FB
:100CC300120D0F70EF12019E7F010202F774F712EB
:100CD300028BE9FE750800D29253FEFB7F80D2930C
:100CE300A2925003EF4208120D0F70F243FE0474F8
:100CF300016E7004C2928002D292120D17C2937ACF
:100D0300047B0012014AD292A90880BC120C9DEF09
:100D1300C313FF227A04120C627A047B0012014A85
:100D23002274F012028B8A088B098C0E8D0F890BAB
:100D3300750A001201B0E50B6005146006800C799A
:100D430005800279031201B6E9F50A53FEFB7E0022
:100D53007F007A047B0012014AA2925012EE240112
:100D63000EEF3400FF74FF6E700374FF6F70E3A225
:100D7300925006E50AD2E0F50A43FE047901120116
:100D8300BC850882850983E4F0A3E9F079011201A7
:100D9300BCE9F50C850882850983E0450CF07900F0
:100DA3001201BCE9850E82850F83F0A90A7F080230
:100DB30002F774F712028B7E00D281D282D283D2E1
:100DC30084D285D286D287EE602A14602314601CF5
:100DD30014601514600E14600714701AC28780160D
:100DE300C2868012C285800EC284800AC2838006B6
:100DF300C2828002C281EEF91201CEE960070EEED3
:100E0300C3940740B474076E7004790180027900BB
:100E1300020CCB74F712028BE9FF7900C3940850DC
:100E23007EE5A0F508E590F8E590FAE590FBE590FE
:100E3300FCE590FDA292E433FEEDA2E3E433FDEC86
:100E4300A2E4E433FCEBA2E5E433FBEAA2E6E433F9
:100E5300FAE8A2E7E433F8E508A2E0E433282A2B12
:100E63002C2D2E64067038EF601414601814601B68
:100E730014601C14601D14601E14601F8021A2A046
:100E8300401D09801AA297401680F7A29680F8A207
:100E93009580F4A29480F0A29380ECA29250E30296
:100EA3000CCBE9C394045008E942BE758701800363
:100EB3007587000200FB74F012028BE9FEE595F5DD
:100EC30008E596F50CE4F509F50AF50BF50DF50EB5
:100ED300F50F7408780C1201F97808790C12022BBB
:100EE30085970CE4F50D7410780C1201F9780879E4
:100EF3000C12022B8E0CE4F50E740F780C1201F910
:100F03007808790C12021885080C85090D850A0EDC
:100F1300850B0F7410780C1201E0E50CF597E509C9
:0E0F2300F596E508F59579021201D4020DB09D
:04000005000000E314
:00000001FF
