:020000040000FA
:030000000200E318
:030013000204F2F2
:03002B0002050BC0
:0300330002049B29
:03006B000203D5B8
:03007B0002042E4E
:1000830002039D00000080FB120113B9000302006C
:10009300CDE490020078DD79018002F0A3D8FCD989
:1000A300FA9002DCAA82AB83900116781179018061
:1000B30015E493A3AC82AD838A828B83F0A3AA82D7
:1000C300AB838C828D83D8E9D9E775823475830934
:1000D30074001200F575828675830074001200F5B2
:1000E30075D0007581BF751000751102759F0002F0
:1000F300008BC09FF59FE473D09F22D083D082C032
:100103009FE493C0E0740193C0E0740293F59F22CF
:10011300790122FF00000000000000000000000041
:100123000000001200FE1C05001200FE050600126E
:1001330000FE9A06001200FECE06001200FEF7062D
:10014300001200FE1B07001200FE4807001200FE0B
:100153006F07001200FE9207001200FEAF070012A5
:1001630000FEBF07001200FECF07001200FEE607E5
:10017300001200FEF807001200FE0A08001200FE3B
:100183001E08001200FE7408001200FE2909001266
:1001930000FE8509001200FEE809001200FE770A3E
:1001A300001200FE8B0A00E0FAA3E0FBA3E0FCA32D
:1001B300E0FD22EAF0A3EBF0A3ECF0A3EDF022CAFA
:1001C300C0E0E6F0A308DAFAD0E0FA227004226075
:1001D3000D18C6C333C608C633C6D5E0F41822C00B
:1001E300D0251010AF08F510500205118008F51046
:1001F30050020511D2AFD0D0222510F58210AF08DE
:10020300F510400215118008F51040021511D2AF08
:10021300851183222510F582E43511F58322E473D9
:100223002510C582C0E0E51134FFC583C0E0E510A9
:10023300C3958224F810AF08858311858210800846
:10024300858311858210D2AFCEF0A3E520F0A37889
:1002530008E608F0A3DEFAEFF0A3E58124FAF8E656
:1002630008F0A3E608F0A3E608F0A30808E608F000
:10027300A3E608F0A315811581D0E0FED0E0F815C0
:100283008115811581E8C0E0EEC0E02285118385E8
:100293001082E0A3FEE0A3F5207808E0A3F608DFD0
:1002A300FAE0A3FFE0A3C0E0E0A3C0E0E0A3C0E066
:1002B300E0A3C0E0E0A3C0E010AF0885821085830F
:1002C300118008858210858311D2AFD083D082023A
:1002D30000FBC0D02510C582C0E0E51134FFC58303
:1002E300C0E0E510C3958224F310AF088583118520
:1002F30082108008858311858210D2AFC8F0A3E9EC
:10030300F0A3EAF0A3EBF0A37908E709F0A3D8FA86
:10031300ECF0A3EDF0A3EEF0A3EFF0A3D0E0F0A395
:10032300D0E0F0A3D0E0F0A3E520F0A3E5F0F0A344
:1003330022851183851082E0C0E0A3E0F9A3E0FAEF
:10034300A3E0FBA37808E0F608A3DFFAE0FCA3E050
:10035300FDA3E0FEA3E0FFA3E0C0E0A3E0C0E0A3B1
:10036300E0F5D0A3E0F520A3E0A3F5F010AF0885F6
:1003730083118582108008858311858210D2AFD0C6
:1003830082D083D0E0F8D0E03274028000C0E0F481
:10039300041201FCD0E01201C222C0E074F2120286
:1003A300D5A2AFE433FEC2AFE5E9A2E6501A90024C
:1003B30089E0F8A3E0F9E8496008E0F58388821250
:1003C3000221759B0053E9BFEEA2E092AF7F0102C9
:1003D3000334C0E074F11202D5C2C5E58960477EDB
:1003E30000750801750900EE78081201CFAF08E522
:1003F300895F602BEEC333F8E433F9748B28F582FD
:1004030074021204846014EEC333F8E433F9748B7A
:1004130028F582740212048F120221EFF452890E1E
:10042300EEC3940840BB7F02020334C0E074F112B0
:1004330002D5C2EBE58A60477E00750801750900A5
:10044300EE78081201CFAF08E58A5F602BEEC33365
:10045300F8E433F9749B28F582740212048460145F
:10046300EEC333F8E433F9749B28F5827402120463
:100473008F120221EFF4528A0EEEC3940840BB8020
:10048300A539F583E0F8A3E0F9E8492239F583E0DB
:10049300F8A3E0F583888222C0E074F11202D5C28A
:1004A300E8E58B60477E00750801750900EE780862
:1004B3001201CFAF08E58B5F602BEEC333F8E43353
:1004C300F974AB28F58274021204846014EEC3330A
:1004D300F8E433F974AB28F582740212048F120224
:1004E30021EFF4528B0EEEC3940540BB020429C0E6
:1004F300E0C0D0C082C083C28BE5C19002DBF0D0E4
:1005030083D082D0D0D0E032C0E074F21202D5C2E0
:10051300C7790412019E0203D0C082C08312015C1A
:10052300D2AF79017A097B02120156900209E0C227
:10053300E7F06405703579051205F75004D2F080B1
:1005430002C2F0A2F0E4339002E4F090020EE0A2C3
:10055300E740030205EF90020CE0F8900200E06828
:1005630060030205EFA374010205EEE024F5900297
:10057300E1F0900209E0F91205F75004D2F080028D
:10058300C2F0A2F0E4339002E4F0900211E0F8A389
:10059300E0F99002DDE8F0A3E9F09002E27413F0D1
:1005A300A37402F09002E1E0F83395E0F9741328A4
:1005B300F8740239F988828983E09002E5F0888231
:1005C3008983A3E0A2E7501C9002DCE0F890020CC0
:1005D300E068601090020AE054DF64417006900204
:1005E300E67401F090020CE09002DCF0C2AF12015D
:1005F300620207A87A0A7B0212015690020AE0A25D
:10060300E52274F7120223EAFEEBFF120150E964BC
:100613000170047901806FC2AF900207EEF0A3EF7F
:10062300F09002E2E4F0A3F090020204F09002E8FA
:100633001201AA9002031201B675F00512068CA3EB
:10064300A3E0A424D490618FF0900208E0F583889E
:1006530082E0F8A3E0F9E8906174F0E9A3F01206F0
:100663008CE0F8A3E0F9E8906172F0E9A3F0E5A863
:10067300F8C2AF9002897426F0A37401F0E8A2E7F0
:1006830092AFD2AF79000209E3900207E0F8A3E04A
:10069300F5838882A3A322E5C65480F853BEFBE505
:1006A3009DA2E550FAE59DA2E240F4007401697051
:1006B30007744948F5C68005E9700288C6E5C6F89F
:1006C300E59E6870FB43BE040200FBE9F8E59EA2C9
:1006D300E640047901801AE8700553C67F800874E8
:1006E3000168700343C680E5C6F9E59E6970FB792E
:1006F300000200FBC082C0837900120138E9601058
:1007030079011201327900120138E960031201689C
:1007130079001201320207A8EBC313FBEA13FAEACA
:10072300F8EBF9E824FFFAE934FFFBE8496013002A
:1007330000000000000000000000000000000000B6
:1007430080DD0200FB74F7120223EAFEEBFFEEF8F2
:10075300EFF9E824FFFEE934FFFFE84960097AE88E
:100763007B0312014480E77F0102028FC082C083B2
:10077300906189E04460F09061FA7409F09061B28D
:100783007415F09061AEE4F012016279008016C036
:1007930082C083800DE5D98A828B83F0A3AA82ABC2
:1007A3008319E970F0D083D0820200FBC082C0833A
:1007B3009061A3E0C2E6F0539AFE80E9C082C08351
:1007C3009061A3E0D2E6F0439A0180D9C082C0834E
:1007D300790112017A790212017A7A327B001201CD
:1007E3004A80EDE91460051460068006D2A08002F9
:1007F300D2800200FBE91460051460068006C2A0E3
:100803008002C2800200FBE91460051460078008BF
:1008130063A00180036380010200FB74F7120223CB
:10082300E9FE9002B5700874EFF0A374BE800674FD
:1008330020F0A37425F0A37407F0A37420F0A3742D
:1008430019F0A37401F07AB57B0212012CE964015B
:100853007003120168EE900202700B7401F075E1EF
:10086300EC75E1E38008E4F075E1EF75E1EC020972
:10087300E374F41202239002E6E060FAC2AF90023E
:10088300E1E0F8C3941E50048808800375081E85B0
:10089300080A750B00780A12038C9002E2E0FCA3AD
:1008A300E0FD7ABB7B021201A474021201E2900202
:1008B300E6E4F0D2AF9002E1E0F8C3941E50628800
:1008C30009E8605D7407650970579002D9E0240157
:1008D300F0A3E03400F09002DDE0FEA3E0F91201A2
:1008E3008CEEF912018C75090085090A74BB250A7F
:1008F300F58274023400F583E0F912018C0509E5F1
:1009030009C3940740E3790D12018C790A12018C13
:1009130079011201747AF47B0112014A79011201FF
:100923006E7F0402028F89F9A2EA50FCC2EA020038
:10093300FB12013E43FF01D2A0D2A0D2AF53F4F980
:1009430043FE0C53F6F9D292D29375F10075F3304E
:1009530043FF40D2FF43FC0B43FAD8C2EAD2FE4323
:10096300A888120150E9640170031201687900122A
:100973000180120192E97005790212017412018655
:1009830080FB74F71202237E00D281D282D283D2FB
:1009930084D285D286D287EE602A14602314601C29
:1009A30014601514600E14600714701AC287801641
:1009B300C2868012C285800EC284800AC2838006EA
:1009C300C2828002C281EEF9120198E960070EEE3D
:1009D300C3940740B474076E7004790180027900F0
:1009E3007F0102028F74F7120223E9FF7900C39497
:1009F30008507EE5A0F508E590F8E590FAE590FB50
:100A0300E590FCE590FDA292E433FEEDA2E3E4332E
:100A1300FDECA2E4E433FCEBA2E5E433FBEAA2E65B
:100A2300E433FAE8A2E7E433F8E508A2E0E4332884
:100A33002A2B2C2D2E64067038EF601414601814C2
:100A4300601B14601C14601D14601E14601F802141
:100A5300A2A0401D09801AA297401680F7A2968093
:100A6300F8A29580F4A29480F0A29380ECA2925015
:100A7300E30209E3E9C394045008E942BE75870120
:100A830080037587000200FB74F6120223740A12B6
:100A93000217E0FEA3E0FFEAF8EBF980188C828DE1
:100AA30083E088828983F0A3A882A9838C828D83C3
:100AB300A3AC82AD838E088F09E50824FF1EE509E8
:0E0AC30034FFFFE508450970D47F0202028F60
:04000005000000E314
:00000001FF
